{
  "contractName": "ERC721Rarible",
  "abi": [
    {
      "anonymous": false,
      "inputs": [
        {
          "indexed": true,
          "internalType": "address",
          "name": "owner",
          "type": "address"
        },
        {
          "indexed": true,
          "internalType": "address",
          "name": "approved",
          "type": "address"
        },
        {
          "indexed": true,
          "internalType": "uint256",
          "name": "tokenId",
          "type": "uint256"
        }
      ],
      "name": "Approval",
      "type": "event"
    },
    {
      "anonymous": false,
      "inputs": [
        {
          "indexed": true,
          "internalType": "address",
          "name": "owner",
          "type": "address"
        },
        {
          "indexed": true,
          "internalType": "address",
          "name": "operator",
          "type": "address"
        },
        {
          "indexed": false,
          "internalType": "bool",
          "name": "approved",
          "type": "bool"
        }
      ],
      "name": "ApprovalForAll",
      "type": "event"
    },
    {
      "anonymous": false,
      "inputs": [
        {
          "indexed": true,
          "internalType": "address",
          "name": "operator",
          "type": "address"
        },
        {
          "indexed": false,
          "internalType": "bool",
          "name": "hasApproval",
          "type": "bool"
        }
      ],
      "name": "DefaultApproval",
      "type": "event"
    },
    {
      "anonymous": false,
      "inputs": [
        {
          "indexed": true,
          "internalType": "address",
          "name": "previousOwner",
          "type": "address"
        },
        {
          "indexed": true,
          "internalType": "address",
          "name": "newOwner",
          "type": "address"
        }
      ],
      "name": "OwnershipTransferred",
      "type": "event"
    },
    {
      "anonymous": false,
      "inputs": [
        {
          "indexed": false,
          "internalType": "uint256",
          "name": "tokenId",
          "type": "uint256"
        },
        {
          "components": [
            {
              "internalType": "address payable",
              "name": "account",
              "type": "address"
            },
            {
              "internalType": "uint256",
              "name": "value",
              "type": "uint256"
            }
          ],
          "indexed": false,
          "internalType": "struct LibFee.Fee[]",
          "name": "fees",
          "type": "tuple[]"
        }
      ],
      "name": "RoyaltiesSet",
      "type": "event"
    },
    {
      "anonymous": false,
      "inputs": [
        {
          "indexed": true,
          "internalType": "address",
          "name": "from",
          "type": "address"
        },
        {
          "indexed": true,
          "internalType": "address",
          "name": "to",
          "type": "address"
        },
        {
          "indexed": true,
          "internalType": "uint256",
          "name": "tokenId",
          "type": "uint256"
        }
      ],
      "name": "Transfer",
      "type": "event"
    },
    {
      "inputs": [
        {
          "internalType": "address",
          "name": "to",
          "type": "address"
        },
        {
          "internalType": "uint256",
          "name": "tokenId",
          "type": "uint256"
        }
      ],
      "name": "approve",
      "outputs": [],
      "stateMutability": "nonpayable",
      "type": "function"
    },
    {
      "inputs": [
        {
          "internalType": "address",
          "name": "owner",
          "type": "address"
        }
      ],
      "name": "balanceOf",
      "outputs": [
        {
          "internalType": "uint256",
          "name": "",
          "type": "uint256"
        }
      ],
      "stateMutability": "view",
      "type": "function",
      "constant": true
    },
    {
      "inputs": [],
      "name": "baseURI",
      "outputs": [
        {
          "internalType": "string",
          "name": "",
          "type": "string"
        }
      ],
      "stateMutability": "view",
      "type": "function",
      "constant": true
    },
    {
      "inputs": [
        {
          "internalType": "uint256",
          "name": "tokenId",
          "type": "uint256"
        }
      ],
      "name": "burn",
      "outputs": [],
      "stateMutability": "nonpayable",
      "type": "function"
    },
    {
      "inputs": [],
      "name": "contractURI",
      "outputs": [
        {
          "internalType": "string",
          "name": "",
          "type": "string"
        }
      ],
      "stateMutability": "view",
      "type": "function",
      "constant": true
    },
    {
      "inputs": [
        {
          "internalType": "uint256",
          "name": "",
          "type": "uint256"
        },
        {
          "internalType": "uint256",
          "name": "",
          "type": "uint256"
        }
      ],
      "name": "fees",
      "outputs": [
        {
          "internalType": "address payable",
          "name": "account",
          "type": "address"
        },
        {
          "internalType": "uint256",
          "name": "value",
          "type": "uint256"
        }
      ],
      "stateMutability": "view",
      "type": "function",
      "constant": true
    },
    {
      "inputs": [
        {
          "internalType": "uint256",
          "name": "tokenId",
          "type": "uint256"
        }
      ],
      "name": "getApproved",
      "outputs": [
        {
          "internalType": "address",
          "name": "",
          "type": "address"
        }
      ],
      "stateMutability": "view",
      "type": "function",
      "constant": true
    },
    {
      "inputs": [
        {
          "internalType": "uint256",
          "name": "_id",
          "type": "uint256"
        }
      ],
      "name": "getCreators",
      "outputs": [
        {
          "internalType": "address[]",
          "name": "",
          "type": "address[]"
        }
      ],
      "stateMutability": "view",
      "type": "function",
      "constant": true
    },
    {
      "inputs": [
        {
          "internalType": "uint256",
          "name": "id",
          "type": "uint256"
        }
      ],
      "name": "getFees",
      "outputs": [
        {
          "components": [
            {
              "internalType": "address payable",
              "name": "account",
              "type": "address"
            },
            {
              "internalType": "uint256",
              "name": "value",
              "type": "uint256"
            }
          ],
          "internalType": "struct LibFee.Fee[]",
          "name": "",
          "type": "tuple[]"
        }
      ],
      "stateMutability": "view",
      "type": "function",
      "constant": true
    },
    {
      "inputs": [
        {
          "internalType": "address",
          "name": "owner",
          "type": "address"
        },
        {
          "internalType": "address",
          "name": "operator",
          "type": "address"
        }
      ],
      "name": "isApprovedForAll",
      "outputs": [
        {
          "internalType": "bool",
          "name": "",
          "type": "bool"
        }
      ],
      "stateMutability": "view",
      "type": "function",
      "constant": true
    },
    {
      "inputs": [
        {
          "components": [
            {
              "internalType": "uint256",
              "name": "tokenId",
              "type": "uint256"
            },
            {
              "internalType": "string",
              "name": "uri",
              "type": "string"
            },
            {
              "internalType": "address[]",
              "name": "creators",
              "type": "address[]"
            },
            {
              "components": [
                {
                  "internalType": "address payable",
                  "name": "account",
                  "type": "address"
                },
                {
                  "internalType": "uint256",
                  "name": "value",
                  "type": "uint256"
                }
              ],
              "internalType": "struct LibFee.Fee[]",
              "name": "fees",
              "type": "tuple[]"
            },
            {
              "internalType": "bytes[]",
              "name": "signatures",
              "type": "bytes[]"
            }
          ],
          "internalType": "struct LibERC721LazyMint.Mint721Data",
          "name": "data",
          "type": "tuple"
        },
        {
          "internalType": "address",
          "name": "to",
          "type": "address"
        }
      ],
      "name": "mintAndTransfer",
      "outputs": [],
      "stateMutability": "nonpayable",
      "type": "function"
    },
    {
      "inputs": [],
      "name": "name",
      "outputs": [
        {
          "internalType": "string",
          "name": "",
          "type": "string"
        }
      ],
      "stateMutability": "view",
      "type": "function",
      "constant": true
    },
    {
      "inputs": [],
      "name": "owner",
      "outputs": [
        {
          "internalType": "address",
          "name": "",
          "type": "address"
        }
      ],
      "stateMutability": "view",
      "type": "function",
      "constant": true
    },
    {
      "inputs": [
        {
          "internalType": "uint256",
          "name": "tokenId",
          "type": "uint256"
        }
      ],
      "name": "ownerOf",
      "outputs": [
        {
          "internalType": "address",
          "name": "",
          "type": "address"
        }
      ],
      "stateMutability": "view",
      "type": "function",
      "constant": true
    },
    {
      "inputs": [],
      "name": "renounceOwnership",
      "outputs": [],
      "stateMutability": "nonpayable",
      "type": "function"
    },
    {
      "inputs": [
        {
          "internalType": "address",
          "name": "from",
          "type": "address"
        },
        {
          "internalType": "address",
          "name": "to",
          "type": "address"
        },
        {
          "internalType": "uint256",
          "name": "tokenId",
          "type": "uint256"
        }
      ],
      "name": "safeTransferFrom",
      "outputs": [],
      "stateMutability": "nonpayable",
      "type": "function"
    },
    {
      "inputs": [
        {
          "internalType": "address",
          "name": "from",
          "type": "address"
        },
        {
          "internalType": "address",
          "name": "to",
          "type": "address"
        },
        {
          "internalType": "uint256",
          "name": "tokenId",
          "type": "uint256"
        },
        {
          "internalType": "bytes",
          "name": "_data",
          "type": "bytes"
        }
      ],
      "name": "safeTransferFrom",
      "outputs": [],
      "stateMutability": "nonpayable",
      "type": "function"
    },
    {
      "inputs": [
        {
          "internalType": "address",
          "name": "operator",
          "type": "address"
        },
        {
          "internalType": "bool",
          "name": "approved",
          "type": "bool"
        }
      ],
      "name": "setApprovalForAll",
      "outputs": [],
      "stateMutability": "nonpayable",
      "type": "function"
    },
    {
      "inputs": [
        {
          "internalType": "address",
          "name": "operator",
          "type": "address"
        },
        {
          "internalType": "bool",
          "name": "hasApproval",
          "type": "bool"
        }
      ],
      "name": "setDefaultApproval",
      "outputs": [],
      "stateMutability": "nonpayable",
      "type": "function"
    },
    {
      "inputs": [
        {
          "internalType": "bytes4",
          "name": "interfaceId",
          "type": "bytes4"
        }
      ],
      "name": "supportsInterface",
      "outputs": [
        {
          "internalType": "bool",
          "name": "",
          "type": "bool"
        }
      ],
      "stateMutability": "view",
      "type": "function",
      "constant": true
    },
    {
      "inputs": [],
      "name": "symbol",
      "outputs": [
        {
          "internalType": "string",
          "name": "",
          "type": "string"
        }
      ],
      "stateMutability": "view",
      "type": "function",
      "constant": true
    },
    {
      "inputs": [
        {
          "internalType": "uint256",
          "name": "index",
          "type": "uint256"
        }
      ],
      "name": "tokenByIndex",
      "outputs": [
        {
          "internalType": "uint256",
          "name": "",
          "type": "uint256"
        }
      ],
      "stateMutability": "view",
      "type": "function",
      "constant": true
    },
    {
      "inputs": [
        {
          "internalType": "address",
          "name": "owner",
          "type": "address"
        },
        {
          "internalType": "uint256",
          "name": "index",
          "type": "uint256"
        }
      ],
      "name": "tokenOfOwnerByIndex",
      "outputs": [
        {
          "internalType": "uint256",
          "name": "",
          "type": "uint256"
        }
      ],
      "stateMutability": "view",
      "type": "function",
      "constant": true
    },
    {
      "inputs": [
        {
          "internalType": "uint256",
          "name": "tokenId",
          "type": "uint256"
        }
      ],
      "name": "tokenURI",
      "outputs": [
        {
          "internalType": "string",
          "name": "",
          "type": "string"
        }
      ],
      "stateMutability": "view",
      "type": "function",
      "constant": true
    },
    {
      "inputs": [],
      "name": "totalSupply",
      "outputs": [
        {
          "internalType": "uint256",
          "name": "",
          "type": "uint256"
        }
      ],
      "stateMutability": "view",
      "type": "function",
      "constant": true
    },
    {
      "inputs": [
        {
          "internalType": "address",
          "name": "from",
          "type": "address"
        },
        {
          "internalType": "address",
          "name": "to",
          "type": "address"
        },
        {
          "internalType": "uint256",
          "name": "tokenId",
          "type": "uint256"
        }
      ],
      "name": "transferFrom",
      "outputs": [],
      "stateMutability": "nonpayable",
      "type": "function"
    },
    {
      "inputs": [
        {
          "internalType": "address",
          "name": "newOwner",
          "type": "address"
        }
      ],
      "name": "transferOwnership",
      "outputs": [],
      "stateMutability": "nonpayable",
      "type": "function"
    },
    {
      "inputs": [
        {
          "internalType": "uint256",
          "name": "_id",
          "type": "uint256"
        },
        {
          "internalType": "address",
          "name": "_from",
          "type": "address"
        },
        {
          "internalType": "address",
          "name": "_to",
          "type": "address"
        }
      ],
      "name": "updateAccount",
      "outputs": [],
      "stateMutability": "nonpayable",
      "type": "function"
    },
    {
      "inputs": [
        {
          "internalType": "string",
          "name": "_name",
          "type": "string"
        },
        {
          "internalType": "string",
          "name": "_symbol",
          "type": "string"
        },
        {
          "internalType": "string",
          "name": "baseURI",
          "type": "string"
        },
        {
          "internalType": "string",
          "name": "contractURI",
          "type": "string"
        }
      ],
      "name": "__ERC721Rarible_init",
      "outputs": [],
      "stateMutability": "nonpayable",
      "type": "function"
    }
  ],
  "bytecode": "0x608060405234801561001057600080fd5b506140d8806100206000396000f3fe608060405234801561001057600080fd5b50600436106101cf5760003560e01c80636c0360eb11610104578063b88d4fde116100a2578063e07f231911610071578063e07f2319146103d4578063e8a3d485146103e7578063e985e9c5146103ef578063f2fde38b14610402576101cf565b8063b88d4fde1461037b578063c2ae4dd51461038e578063c87b56dd146103a1578063d5a06d4c146103b4576101cf565b8063891be974116100de578063891be974146103385780638da5cb5b1461035857806395d89b4114610360578063a22cb46514610368576101cf565b80636c0360eb1461031557806370a082311461031d578063715018a614610330576101cf565b80632a8399631161017157806342966c681161014b57806342966c68146102bb5780634f6ccce7146102ce5780636308f1cd146102e15780636352211e14610302576101cf565b80632a839963146102825780632f745c591461029557806342842e0e146102a8576101cf565b8063095ea7b3116101ad578063095ea7b31461023257806318054c371461024757806318160ddd1461025a57806323b872dd1461026f576101cf565b806301ffc9a7146101d457806306fdde03146101fd578063081812fc14610212575b600080fd5b6101e76101e2366004613902565b610415565b6040516101f49190613c02565b60405180910390f35b610205610438565b6040516101f49190613c0d565b610225610220366004613ab6565b6104ce565b6040516101f49190613b30565b6102456102403660046138d7565b610530565b005b6102456102553660046138a6565b61060b565b61026261068d565b6040516101f49190613d01565b61024561027d3660046137fc565b61069e565b61024561029036600461392a565b6106f5565b6102626102a33660046138d7565b6107ef565b6102456102b63660046137fc565b61081a565b6102456102c9366004613ab6565b610835565b6102626102dc366004613ab6565b610887565b6102f46102ef366004613b0f565b61089d565b6040516101f4929190613b44565b610225610310366004613ab6565b6108e4565b61020561090c565b61026261032b3660046137a8565b61096d565b6102456109d5565b61034b610346366004613ab6565b610a93565b6040516101f49190613b5d565b610225610b00565b610205610b0f565b6102456103763660046138a6565b610b70565b61024561038936600461383c565b610c75565b61024561039c3660046139c6565b610cd3565b6102056103af366004613ab6565b610e42565b6103c76103c2366004613ab6565b6110c3565b6040516101f49190613baa565b6102456103e2366004613ace565b61114c565b61020561118f565b6101e76103fd3660046137c4565b61121e565b6102456104103660046137a8565b61122a565b6001600160e01b0319811660009081526065602052604090205460ff165b919050565b609c8054604080516020601f60026000196101006001881615020190951694909404938401819004810282018101909252828152606093909290918301828280156104c45780601f10610499576101008083540402835291602001916104c4565b820191906000526020600020905b8154815290600101906020018083116104a757829003601f168201915b5050505050905090565b60006104d98261133f565b6105145760405162461bcd60e51b815260040180806020018281038252602c815260200180613f71602c913960400191505060405180910390fd5b506000908152609a60205260409020546001600160a01b031690565b600061053b826108e4565b9050806001600160a01b0316836001600160a01b0316141561058e5760405162461bcd60e51b81526004018080602001828103825260218152602001806140216021913960400191505060405180910390fd5b806001600160a01b03166105a061134c565b6001600160a01b031614806105c157506105c1816105bc61134c565b611350565b6105fc5760405162461bcd60e51b8152600401808060200182810382526038815260200180613e746038913960400191505060405180910390fd5b610606838361137e565b505050565b61061361134c565b6001600160a01b0316610624610b00565b6001600160a01b03161461067f576040805162461bcd60e51b815260206004820181905260248201527f4f776e61626c653a2063616c6c6572206973206e6f7420746865206f776e6572604482015290519081900360640190fd5b61068982826113ec565b5050565b6000610699609861144c565b905090565b6106af6106a961134c565b82611457565b6106ea5760405162461bcd60e51b81526004018080602001828103825260318152602001806140426031913960400191505060405180910390fd5b610606838383611463565b600054610100900460ff168061070e575061070e6115af565b8061071c575060005460ff16155b6107575760405162461bcd60e51b815260040180806020018281038252602e815260200180613eff602e913960400191505060405180910390fd5b600054610100900460ff16158015610782576000805460ff1961ff0019909116610100171660011790555b61078b836115c0565b6107936115d3565b61079b611684565b6107a3611721565b6107ab6117c1565b6107b361185e565b6107bb611721565b6107c3611957565b6107cc82611a26565b6107d68585611aed565b80156107e8576000805461ff00191690555b5050505050565b6001600160a01b03821660009081526097602052604081206108119083611be8565b90505b92915050565b61060683838360405180602001604052806000815250610c75565b6108406106a961134c565b61087b5760405162461bcd60e51b81526004018080602001828103825260308152602001806140736030913960400191505060405180910390fd5b61088481611bf4565b50565b600080610895609884611cc1565b509392505050565b61013060205281600052604060002081815481106108ba57600080fd5b6000918252602090912060029091020180546001909101546001600160a01b039091169250905082565b600061081482604051806060016040528060298152602001613ed66029913960989190611cdd565b609f8054604080516020601f60026000196101006001881615020190951694909404938401819004810282018101909252828152606093909290918301828280156104c45780601f10610499576101008083540402835291602001916104c4565b60006001600160a01b0382166109b45760405162461bcd60e51b815260040180806020018281038252602a815260200180613eac602a913960400191505060405180910390fd5b6001600160a01b03821660009081526097602052604090206108149061144c565b6109dd61134c565b6001600160a01b03166109ee610b00565b6001600160a01b031614610a49576040805162461bcd60e51b815260206004820181905260248201527f4f776e61626c653a2063616c6c6572206973206e6f7420746865206f776e6572604482015290519081900360640190fd5b6033546040516000916001600160a01b0316907f8be0079c531659141344cd1fd0a4f28419497f9722a3daafe3b4186f6b6457e0908390a3603380546001600160a01b0319169055565b60008181526101316020908152604091829020805483518184028101840190945280845260609392830182828015610af457602002820191906000526020600020905b81546001600160a01b03168152600190910190602001808311610ad6575b50505050509050919050565b6033546001600160a01b031690565b609d8054604080516020601f60026000196101006001881615020190951694909404938401819004810282018101909252828152606093909290918301828280156104c45780601f10610499576101008083540402835291602001916104c4565b610b7861134c565b6001600160a01b0316826001600160a01b03161415610bde576040805162461bcd60e51b815260206004820152601960248201527f4552433732313a20617070726f766520746f2063616c6c657200000000000000604482015290519081900360640190fd5b80609b6000610beb61134c565b6001600160a01b03908116825260208083019390935260409182016000908120918716808252919093529120805460ff191692151592909217909155610c2f61134c565b6001600160a01b03167f17307eab39ab6107e8899845ad3d59bd9653f200f220920489ca2b5937696c318360405180821515815260200191505060405180910390a35050565b610c86610c8061134c565b83611457565b610cc15760405162461bcd60e51b81526004018080602001828103825260318152602001806140426031913960400191505060405180910390fd5b610ccd84848484611cf4565b50505050565b815160601c6000610ce261134c565b90508360400151600081518110610cf557fe5b60200260200101516001600160a01b0316826001600160a01b031614610d365760405162461bcd60e51b8152600401610d2d90613c60565b60405180910390fd5b83608001515184604001515114610d4c57600080fd5b806001600160a01b0316826001600160a01b03161480610d715750610d71828261121e565b610d8d5760405162461bcd60e51b8152600401610d2d90613cb0565b60005b846040015151811015610de557600085604001518281518110610daf57fe5b60200260200101519050826001600160a01b0316816001600160a01b031614610ddc57610ddc8683611d46565b50600101610d90565b50610df4838560000151611d87565b610e0684600001518560200151611eb5565b610e1884600001518560600151611f18565b60408085015185516000908152610131602090815292902081516107e89391929190910190613490565b6060610e4d8261133f565b610e885760405162461bcd60e51b815260040180806020018281038252602f815260200180613ff2602f913960400191505060405180910390fd5b6000828152609e602090815260408083208054825160026001831615610100026000190190921691909104601f810185900485028201850190935282815292909190830182828015610f1b5780601f10610ef057610100808354040283529160200191610f1b565b820191906000526020600020905b815481529060010190602001808311610efe57829003601f168201915b505050505090506000610f2c61090c565b9050805160001415610f4057509050610433565b8151156110015780826040516020018083805190602001908083835b60208310610f7b5780518252601f199092019160209182019101610f5c565b51815160209384036101000a600019018019909216911617905285519190930192850191508083835b60208310610fc35780518252601f199092019160209182019101610fa4565b6001836020036101000a0380198251168184511680821785525050505050509050019250505060405160208183030381529060405292505050610433565b8061100b8561207d565b6040516020018083805190602001908083835b6020831061103d5780518252601f19909201916020918201910161101e565b51815160209384036101000a600019018019909216911617905285519190930192850191508083835b602083106110855780518252601f199092019160209182019101611066565b6001836020036101000a0380198251168184511680821785525050505050509050019250505060405160208183030381529060405292505050919050565b60606101306000838152602001908152602001600020805480602002602001604051908101604052809291908181526020016000905b82821015611141576000848152602090819020604080518082019091526002850290910180546001600160a01b031682526001908101548284015290835290920191016110f9565b505050509050919050565b816001600160a01b031661115e61134c565b6001600160a01b0316146111845760405162461bcd60e51b8152600401610d2d90613c8b565b610606838383612158565b610132805460408051602060026001851615610100026000190190941693909304601f810184900484028201840190925281815292918301828280156112165780601f106111eb57610100808354040283529160200191611216565b820191906000526020600020905b8154815290600101906020018083116111f957829003601f168201915b505050505081565b6000610811838361220e565b61123261134c565b6001600160a01b0316611243610b00565b6001600160a01b03161461129e576040805162461bcd60e51b815260206004820181905260248201527f4f776e61626c653a2063616c6c6572206973206e6f7420746865206f776e6572604482015290519081900360640190fd5b6001600160a01b0381166112e35760405162461bcd60e51b8152600401808060200182810382526026815260200180613db66026913960400191505060405180910390fd5b6033546040516001600160a01b038084169216907f8be0079c531659141344cd1fd0a4f28419497f9722a3daafe3b4186f6b6457e090600090a3603380546001600160a01b0319166001600160a01b0392909216919091179055565b600061081460988361223a565b3390565b6001600160a01b039182166000908152609b6020908152604080832093909416825291909152205460ff1690565b6000818152609a6020526040902080546001600160a01b0319166001600160a01b03841690811790915581906113b3826108e4565b6001600160a01b03167f8c5be1e5ebec7d5bd14f71427d1e84f3dd0314c0f7b2291e5b200ac8c7c3b92560405160405180910390a45050565b6001600160a01b038216600081815260c96020908152604091829020805460ff1916851515908117909155825190815291517f270dbb8ba4292910ae92862466486be25c355c837270a3d8824b36a8bc7c653b9281900390910190a25050565b600061081482612246565b6000610811838361224a565b826001600160a01b0316611476826108e4565b6001600160a01b0316146114bb5760405162461bcd60e51b8152600401808060200182810382526029815260200180613fc96029913960400191505060405180910390fd5b6001600160a01b0382166115005760405162461bcd60e51b8152600401808060200182810382526024815260200180613ddc6024913960400191505060405180910390fd5b61150b838383610606565b61151660008261137e565b6001600160a01b03831660009081526097602052604090206115389082612276565b506001600160a01b038216600090815260976020526040902061155b9082612282565b506115686098828461228e565b5080826001600160a01b0316846001600160a01b03167fddf252ad1be2c89b69c2b068fc378daa952ba7f163c4a11628f55a4df523b3ef60405160405180910390a4505050565b60006115ba306122a4565b15905090565b805161068990609f9060208401906134f5565b600054610100900460ff16806115ec57506115ec6115af565b806115fa575060005460ff16155b6116355760405162461bcd60e51b815260040180806020018281038252602e815260200180613eff602e913960400191505060405180910390fd5b600054610100900460ff16158015611660576000805460ff1961ff0019909116610100171660011790555b611670638486f69f60e01b6122aa565b8015610884576000805461ff001916905550565b600054610100900460ff168061169d575061169d6115af565b806116ab575060005460ff16155b6116e65760405162461bcd60e51b815260040180806020018281038252602e815260200180613eff602e913960400191505060405180910390fd5b600054610100900460ff16158015611711576000805460ff1961ff0019909116610100171660011790555b6116706335681b5360e21b6122aa565b600054610100900460ff168061173a575061173a6115af565b80611748575060005460ff16155b6117835760405162461bcd60e51b815260040180806020018281038252602e815260200180613eff602e913960400191505060405180910390fd5b600054610100900460ff16158015611670576000805460ff1961ff0019909116610100171660011790558015610884576000805461ff001916905550565b600054610100900460ff16806117da57506117da6115af565b806117e8575060005460ff16155b6118235760405162461bcd60e51b815260040180806020018281038252602e815260200180613eff602e913960400191505060405180910390fd5b600054610100900460ff1615801561184e576000805460ff1961ff0019909116610100171660011790555b6116706301ffc9a760e01b6122aa565b600054610100900460ff168061187757506118776115af565b80611885575060005460ff16155b6118c05760405162461bcd60e51b815260040180806020018281038252602e815260200180613eff602e913960400191505060405180910390fd5b600054610100900460ff161580156118eb576000805460ff1961ff0019909116610100171660011790555b60006118f561134c565b603380546001600160a01b0319166001600160a01b038316908117909155604051919250906000907f8be0079c531659141344cd1fd0a4f28419497f9722a3daafe3b4186f6b6457e0908290a3508015610884576000805461ff001916905550565b600054610100900460ff168061197057506119706115af565b8061197e575060005460ff16155b6119b95760405162461bcd60e51b815260040180806020018281038252602e815260200180613eff602e913960400191505060405180910390fd5b600054610100900460ff161580156119e4576000805460ff1961ff0019909116610100171660011790555b611670604051806040016040528060078152602001664d696e7437323160c81b815250604051806040016040528060018152602001603160f81b81525061232e565b600054610100900460ff1680611a3f5750611a3f6115af565b80611a4d575060005460ff16155b611a885760405162461bcd60e51b815260040180806020018281038252602e815260200180613eff602e913960400191505060405180910390fd5b600054610100900460ff16158015611ab3576000805460ff1961ff0019909116610100171660011790555b8151611ac7906101329060208501906134f5565b50611ad863e8a3d48560e01b6122aa565b8015610689576000805461ff00191690555050565b600054610100900460ff1680611b065750611b066115af565b80611b14575060005460ff16155b611b4f5760405162461bcd60e51b815260040180806020018281038252602e815260200180613eff602e913960400191505060405180910390fd5b600054610100900460ff16158015611b7a576000805460ff1961ff0019909116610100171660011790555b8251611b8d90609c9060208601906134f5565b508151611ba190609d9060208501906134f5565b50611bb26380ac58cd60e01b6122aa565b611bc2635b5e139f60e01b6122aa565b611bd263780e9d6360e01b6122aa565b8015610606576000805461ff0019169055505050565b600061081183836123c5565b6000611bff826108e4565b9050611c0d81600084610606565b611c1860008361137e565b6000828152609e60205260409020546002600019610100600184161502019091160415611c56576000828152609e60205260408120611c5691613571565b6001600160a01b0381166000908152609760205260409020611c789083612276565b50611c84609883612429565b5060405182906000906001600160a01b038416907fddf252ad1be2c89b69c2b068fc378daa952ba7f163c4a11628f55a4df523b3ef908390a45050565b6000808080611cd08686612435565b9097909650945050505050565b6000611cea8484846124b0565b90505b9392505050565b611cff848484611463565b611d0b8484848461257a565b610ccd5760405162461bcd60e51b8152600401808060200182810382526032815260200180613d846032913960400191505060405180910390fd5b61068982604001518281518110611d5957fe5b6020026020010151611d6a846126e3565b84608001518481518110611d7a57fe5b602002602001015161293d565b6001600160a01b038216611de2576040805162461bcd60e51b815260206004820181905260248201527f4552433732313a206d696e7420746f20746865207a65726f2061646472657373604482015290519081900360640190fd5b611deb8161133f565b15611e3d576040805162461bcd60e51b815260206004820152601c60248201527f4552433732313a20746f6b656e20616c7265616479206d696e74656400000000604482015290519081900360640190fd5b611e4960008383610606565b6001600160a01b0382166000908152609760205260409020611e6b9082612282565b50611e786098828461228e565b5060405181906001600160a01b038416906000907fddf252ad1be2c89b69c2b068fc378daa952ba7f163c4a11628f55a4df523b3ef908290a45050565b611ebe8261133f565b611ef95760405162461bcd60e51b815260040180806020018281038252602c815260200180613f9d602c913960400191505060405180910390fd5b6000828152609e602090815260409091208251610606928401906134f5565b60005b81518110156106065760006001600160a01b0316828281518110611f3b57fe5b6020026020010151600001516001600160a01b03161415611fa3576040805162461bcd60e51b815260206004820152601b60248201527f526563697069656e742073686f756c642062652070726573656e740000000000604482015290519081900360640190fd5b818181518110611faf57fe5b60200260200101516020015160001415612010576040805162461bcd60e51b815260206004820152601c60248201527f4665652076616c75652073686f756c6420626520706f73697469766500000000604482015290519081900360640190fd5b600083815261013060205260409020825183908390811061202d57fe5b602090810291909101810151825460018082018555600094855293839020825160029092020180546001600160a01b0319166001600160a01b039092169190911781559101519082015501611f1b565b6060816120a257506040805180820190915260018152600360fc1b6020820152610433565b8160005b81156120ba57600101600a820491506120a6565b60008167ffffffffffffffff811180156120d357600080fd5b506040519080825280601f01601f1916602001820160405280156120fe576020820181803683370190505b50859350905060001982015b831561214f57600a840660300160f81b8282806001900393508151811061212d57fe5b60200101906001600160f81b031916908160001a905350600a8404935061210a565b50949350505050565b60008381526101306020526040812054905b818110156107e85760008581526101306020526040902080546001600160a01b03861691908390811061219957fe5b60009182526020909120600290910201546001600160a01b03161415612206576000858152610130602052604090208054849190839081106121d757fe5b6000918252602090912060029091020180546001600160a01b0319166001600160a01b03929092169190911790555b60010161216a565b6001600160a01b038116600090815260c9602052604081205460ff168061081157506108118383611350565b60006108118383612b77565b5490565b6001600160a01b038216600090815260c9602052604081205460ff168061081157506108118383612b8f565b60006108118383612c2b565b60006108118383612cf1565b6000611cea84846001600160a01b038516612d3b565b3b151590565b6001600160e01b03198082161415612309576040805162461bcd60e51b815260206004820152601c60248201527f4552433136353a20696e76616c696420696e7465726661636520696400000000604482015290519081900360640190fd5b6001600160e01b0319166000908152606560205260409020805460ff19166001179055565b600054610100900460ff168061234757506123476115af565b80612355575060005460ff16155b6123905760405162461bcd60e51b815260040180806020018281038252602e815260200180613eff602e913960400191505060405180910390fd5b600054610100900460ff161580156123bb576000805460ff1961ff0019909116610100171660011790555b611bd28383612dd2565b815460009082106124075760405162461bcd60e51b8152600401808060200182810382526022815260200180613d626022913960400191505060405180910390fd5b82600001828154811061241657fe5b9060005260206000200154905092915050565b60006108118383612e92565b8154600090819083106124795760405162461bcd60e51b8152600401808060200182810382526022815260200180613f4f6022913960400191505060405180910390fd5b600084600001848154811061248a57fe5b906000526020600020906002020190508060000154816001015492509250509250929050565b6000828152600184016020526040812054828161254b5760405162461bcd60e51b81526004018080602001828103825283818151815260200191508051906020019080838360005b838110156125105781810151838201526020016124f8565b50505050905090810190601f16801561253d5780820380516001836020036101000a031916815260200191505b509250505060405180910390fd5b5084600001600182038154811061255e57fe5b9060005260206000209060020201600101549150509392505050565b600061258e846001600160a01b03166122a4565b61259a575060016126db565b60006126a8630a85bd0160e11b6125af61134c565b88878760405160240180856001600160a01b03168152602001846001600160a01b0316815260200183815260200180602001828103825283818151815260200191508051906020019080838360005b838110156126165781810151838201526020016125fe565b50505050905090810190601f1680156126435780820380516001836020036101000a031916815260200191505b5095505050505050604051602081830303815290604052906001600160e01b0319166020820180516001600160e01b038381831617835250505050604051806060016040528060328152602001613d84603291396001600160a01b0388169190612f66565b905060008180602001905160208110156126c157600080fd5b50516001600160e01b031916630a85bd0160e11b14925050505b949350505050565b60008082606001515167ffffffffffffffff8111801561270257600080fd5b5060405190808252806020026020018201604052801561272c578160200160208202803683370190505b50905060005b83606001515181101561277e5761275f8460600151828151811061275257fe5b6020026020010151612f75565b82828151811061276b57fe5b6020908102919091010152600101612732565b50600083604001515167ffffffffffffffff8111801561279d57600080fd5b506040519080825280602002602001820160405280156127c7578160200160208202803683370190505b50905060005b84604001515181101561281d57846040015181815181106127ea57fe5b60200260200101516001600160a01b031660001b82828151811061280a57fe5b60209081029190910101526001016127cd565b507fcdd06a8dbca69262491c025604e3db36ab94c5f991a6b0b20be9cb4e03fd853184600001518560200151805190602001208360405160200180828051906020019060200280838360005b83811015612881578181015183820152602001612869565b50505050905001915050604051602081830303815290604052805190602001208560405160200180828051906020019060200280838360005b838110156128d25781810151838201526020016128ba565b505050509050019150506040516020818303038152906040528051906020012060405160200180868152602001858152602001848152602001838152602001828152602001955050505050506040516020818303038152906040528051906020012092505050919050565b600061294883612fd8565b905061295c846001600160a01b03166122a4565b15612ad75760408051630b135d3f60e11b815260048101838152602482019283528451604483015284516320c13b0b60e01b936001600160a01b03891693631626ba7e9387938993919260640190602085019080838360005b838110156129cd5781810151838201526020016129b5565b50505050905090810190601f1680156129fa5780820380516001836020036101000a031916815260200191505b50935050505060206040518083038186803b158015612a1857600080fd5b505afa158015612a2c573d6000803e3d6000fd5b505050506040513d6020811015612a4257600080fd5b505160408051808201909152601c81527f7369676e617475726520766572696669636174696f6e206572726f72000000006020820152916001600160e01b031990911614612ad15760405162461bcd60e51b81526020600482018181528351602484015283519092839260449091019190850190808383600083156125105781810151838201526020016124f8565b50610ccd565b6001600160a01b038416612aeb8284613024565b6001600160a01b0316146040518060400160405280601c81526020017f7369676e617475726520766572696669636174696f6e206572726f7200000000815250906107e85760405162461bcd60e51b81526020600482018181528351602484015283519092839260449091019190850190808383600083156125105781810151838201526020016124f8565b60009081526001919091016020526040902054151590565b6000612b9a8261133f565b612bd55760405162461bcd60e51b815260040180806020018281038252602c815260200180613e48602c913960400191505060405180910390fd5b6000612be0836108e4565b9050806001600160a01b0316846001600160a01b03161480612c1b5750836001600160a01b0316612c10846104ce565b6001600160a01b0316145b806126db57506126db8185611350565b60008181526001830160205260408120548015612ce75783546000198083019190810190600090879083908110612c5e57fe5b9060005260206000200154905080876000018481548110612c7b57fe5b600091825260208083209091019290925582815260018981019092526040902090840190558654879080612cab57fe5b60019003818190600052602060002001600090559055866001016000878152602001908152602001600020600090556001945050505050610814565b6000915050610814565b6000612cfd8383612b77565b612d3357508154600181810184556000848152602080822090930184905584548482528286019093526040902091909155610814565b506000610814565b600082815260018401602052604081205480612da0575050604080518082018252838152602080820184815286546001818101895560008981528481209551600290930290950191825591519082015586548684528188019092529290912055611ced565b82856000016001830381548110612db357fe5b9060005260206000209060020201600101819055506000915050611ced565b600054610100900460ff1680612deb5750612deb6115af565b80612df9575060005460ff16155b612e345760405162461bcd60e51b815260040180806020018281038252602e815260200180613eff602e913960400191505060405180910390fd5b600054610100900460ff16158015612e5f576000805460ff1961ff0019909116610100171660011790555b825160208085019190912083519184019190912060fc9190915560fd558015610606576000805461ff0019169055505050565b60008181526001830160205260408120548015612ce75783546000198083019190810190600090879083908110612ec557fe5b9060005260206000209060020201905080876000018481548110612ee557fe5b600091825260208083208454600290930201918255600193840154918401919091558354825289830190526040902090840190558654879080612f2457fe5b60008281526020808220600260001990940193840201828155600190810183905592909355888152898201909252604082209190915594506108149350505050565b6060611cea84846000856130a4565b8051602091820151604080517ff0c50c5b8db1fd3b42b96706703d52d66c1a336b5746dccc9c4b16f9f8c2766b818601526001600160a01b0390931683820152606080840192909252805180840390920182526080909201909152805191012090565b6000612fe26131ff565b82604051602001808061190160f01b81525060020183815260200182815260200192505050604051602081830303815290604052805190602001209050919050565b6000815160411461307c576040805162461bcd60e51b815260206004820152601f60248201527f45434453413a20696e76616c6964207369676e6174757265206c656e67746800604482015290519081900360640190fd5b60208201516040830151606084015160001a61309a8682858561323a565b9695505050505050565b6060824710156130e55760405162461bcd60e51b8152600401808060200182810382526026815260200180613e226026913960400191505060405180910390fd5b6130ee856122a4565b61313f576040805162461bcd60e51b815260206004820152601d60248201527f416464726573733a2063616c6c20746f206e6f6e2d636f6e7472616374000000604482015290519081900360640190fd5b600080866001600160a01b031685876040518082805190602001908083835b6020831061317d5780518252601f19909201916020918201910161315e565b6001836020036101000a03801982511681845116808217855250505050505090500191505060006040518083038185875af1925050503d80600081146131df576040519150601f19603f3d011682016040523d82523d6000602084013e6131e4565b606091505b50915091506131f48282866133b8565b979650505050505050565b60006106997f8b73c3c69bb8fe3d512ecc4cf759cc79239f7b179b0ffacaa9a75d522b39400f61322d61341e565b613235613424565b61342a565b60007f7fffffffffffffffffffffffffffffff5d576e7357a4501ddfe92f46681b20a082111561329b5760405162461bcd60e51b8152600401808060200182810382526022815260200180613e006022913960400191505060405180910390fd5b8360ff16601b14806132b057508360ff16601c145b6132eb5760405162461bcd60e51b8152600401808060200182810382526022815260200180613f2d6022913960400191505060405180910390fd5b600060018686868660405160008152602001604052604051808581526020018460ff1681526020018381526020018281526020019450505050506020604051602081039080840390855afa158015613347573d6000803e3d6000fd5b5050604051601f1901519150506001600160a01b0381166133af576040805162461bcd60e51b815260206004820152601860248201527f45434453413a20696e76616c6964207369676e61747572650000000000000000604482015290519081900360640190fd5b95945050505050565b606083156133c7575081611ced565b8251156133d75782518084602001fd5b60405162461bcd60e51b81526020600482018181528451602484015284518593919283926044019190850190808383600083156125105781810151838201526020016124f8565b60fc5490565b60fd5490565b600083838361343761348c565b3060405160200180868152602001858152602001848152602001838152602001826001600160a01b03168152602001955050505050506040516020818303038152906040528051906020012090509392505050565b4690565b8280548282559060005260206000209081019282156134e5579160200282015b828111156134e557825182546001600160a01b0319166001600160a01b039091161782556020909201916001909101906134b0565b506134f19291506135b1565b5090565b828054600181600116156101000203166002900490600052602060002090601f01602090048101928261352b57600085556134e5565b82601f1061354457805160ff19168380011785556134e5565b828001600101855582156134e5579182015b828111156134e5578251825591602001919060010190613556565b50805460018160011615610100020316600290046000825580601f106135975750610884565b601f01602090049060005260206000209081019061088491905b5b808211156134f157600081556001016135b2565b803561043381613d4c565b600082601f8301126135e1578081fd5b813560206135f66135f183613d2e565b613d0a565b8281528181019085830183850287018401881015613612578586fd5b855b8581101561363957813561362781613d4c565b84529284019290840190600101613614565b5090979650505050505050565b600082601f830112613656578081fd5b813560206136666135f183613d2e565b82815281810190858301855b8581101561363957613689898684358b0101613743565b84529284019290840190600101613672565b600082601f8301126136ab578081fd5b813560206136bb6135f183613d2e565b828152818101908583016040808602880185018910156136d9578687fd5b865b868110156137355781838b0312156136f1578788fd5b815182810181811067ffffffffffffffff8211171561370c57fe5b8352833561371981613d4c565b81528387013587820152855293850193918101916001016136db565b509198975050505050505050565b600082601f830112613753578081fd5b813567ffffffffffffffff81111561376757fe5b61377a601f8201601f1916602001613d0a565b81815284602083860101111561378e578283fd5b816020850160208301379081016020019190915292915050565b6000602082840312156137b9578081fd5b8135611ced81613d4c565b600080604083850312156137d6578081fd5b82356137e181613d4c565b915060208301356137f181613d4c565b809150509250929050565b600080600060608486031215613810578081fd5b833561381b81613d4c565b9250602084013561382b81613d4c565b929592945050506040919091013590565b60008060008060808587031215613851578081fd5b843561385c81613d4c565b9350602085013561386c81613d4c565b925060408501359150606085013567ffffffffffffffff81111561388e578182fd5b61389a87828801613743565b91505092959194509250565b600080604083850312156138b8578182fd5b82356138c381613d4c565b9150602083013580151581146137f1578182fd5b600080604083850312156138e9578182fd5b82356138f481613d4c565b946020939093013593505050565b600060208284031215613913578081fd5b81356001600160e01b031981168114611ced578182fd5b6000806000806080858703121561393f578182fd5b843567ffffffffffffffff80821115613956578384fd5b61396288838901613743565b95506020870135915080821115613977578384fd5b61398388838901613743565b94506040870135915080821115613998578384fd5b6139a488838901613743565b935060608701359150808211156139b9578283fd5b5061389a87828801613743565b600080604083850312156139d8578182fd5b823567ffffffffffffffff808211156139ef578384fd5b9084019060a08287031215613a02578384fd5b613a0c60a0613d0a565b82358152602083013582811115613a21578586fd5b613a2d88828601613743565b602083015250604083013582811115613a44578586fd5b613a50888286016135d1565b604083015250606083013582811115613a67578586fd5b613a738882860161369b565b606083015250608083013582811115613a8a578586fd5b613a9688828601613646565b6080830152509350613aad915050602084016135c6565b90509250929050565b600060208284031215613ac7578081fd5b5035919050565b600080600060608486031215613ae2578081fd5b833592506020840135613af481613d4c565b91506040840135613b0481613d4c565b809150509250925092565b60008060408385031215613b21578182fd5b50508035926020909101359150565b6001600160a01b0391909116815260200190565b6001600160a01b03929092168252602082015260400190565b6020808252825182820181905260009190848201906040850190845b81811015613b9e5783516001600160a01b031683529284019291840191600101613b79565b50909695505050505050565b602080825282518282018190526000919060409081850190868401855b82811015613bf557815180516001600160a01b03168552860151868501529284019290850190600101613bc7565b5091979650505050505050565b901515815260200190565b6000602080835283518082850152825b81811015613c3957858101830151858201604001528201613c1d565b81811115613c4a5783604083870101525b50601f01601f1916929092016040019392505050565b6020808252601190820152701d1bdad95b9259081a5b98dbdc9c9958dd607a1b604082015260600190565b6020808252600b908201526a1b9bdd08185b1b1bddd95960aa1b604082015260600190565b60208082526031908201527f4552433732313a207472616e736665722063616c6c6572206973206e6f74206f6040820152701ddb995c881b9bdc88185c1c1c9bdd9959607a1b606082015260800190565b90815260200190565b60405181810167ffffffffffffffff81118282101715613d2657fe5b604052919050565b600067ffffffffffffffff821115613d4257fe5b5060209081020190565b6001600160a01b038116811461088457600080fdfe456e756d657261626c655365743a20696e646578206f7574206f6620626f756e64734552433732313a207472616e7366657220746f206e6f6e20455243373231526563656976657220696d706c656d656e7465724f776e61626c653a206e6577206f776e657220697320746865207a65726f20616464726573734552433732313a207472616e7366657220746f20746865207a65726f206164647265737345434453413a20696e76616c6964207369676e6174757265202773272076616c7565416464726573733a20696e73756666696369656e742062616c616e636520666f722063616c6c4552433732313a206f70657261746f7220717565727920666f72206e6f6e6578697374656e7420746f6b656e4552433732313a20617070726f76652063616c6c6572206973206e6f74206f776e6572206e6f7220617070726f76656420666f7220616c6c4552433732313a2062616c616e636520717565727920666f7220746865207a65726f20616464726573734552433732313a206f776e657220717565727920666f72206e6f6e6578697374656e7420746f6b656e496e697469616c697a61626c653a20636f6e747261637420697320616c726561647920696e697469616c697a656445434453413a20696e76616c6964207369676e6174757265202776272076616c7565456e756d657261626c654d61703a20696e646578206f7574206f6620626f756e64734552433732313a20617070726f76656420717565727920666f72206e6f6e6578697374656e7420746f6b656e4552433732314d657461646174613a2055524920736574206f66206e6f6e6578697374656e7420746f6b656e4552433732313a207472616e73666572206f6620746f6b656e2074686174206973206e6f74206f776e4552433732314d657461646174613a2055524920717565727920666f72206e6f6e6578697374656e7420746f6b656e4552433732313a20617070726f76616c20746f2063757272656e74206f776e65724552433732313a207472616e736665722063616c6c6572206973206e6f74206f776e6572206e6f7220617070726f7665644552433732314275726e61626c653a2063616c6c6572206973206e6f74206f776e6572206e6f7220617070726f766564a264697066735822122093a597804a2168f40d0e42939140ac3644f8e478d39ea99fe491ba03eaa9255764736f6c63430007060033",
  "immutableReferences": {},
  "source": "// SPDX-License-Identifier: MIT\n\npragma solidity >=0.6.2 <0.8.0;\npragma abicoder v2;\n\nimport \"./ERC721Base.sol\";\n\ncontract ERC721Rarible is ERC721Base {\n    function __ERC721Rarible_init(string memory _name, string memory _symbol, string memory baseURI, string memory contractURI) external initializer {\n        _setBaseURI(baseURI);\n        __ERC721Lazy_init_unchained();\n        __RoyaltiesV2Upgradeable_init_unchained();\n        __Context_init_unchained();\n        __ERC165_init_unchained();\n        __Ownable_init_unchained();\n        __ERC721Burnable_init_unchained();\n        __Mint721Validator_init_unchained();\n        __HasContractURI_init_unchained(contractURI);\n        __ERC721_init_unchained(_name, _symbol);\n    }\n}\n",
  "sourcePath": "/Volumes/BATTLE/Projects/nftmall/src/contracts/tokens/contracts/erc-721/ERC721Rarible.sol",
  "compiler": {
    "name": "solc",
    "version": "0.7.6+commit.7338295f.Emscripten.clang"
  },
  "schemaVersion": "3.3.4",
  "updatedAt": "2021-03-14T13:11:44.658Z",
  "networkType": "ethereum",
  "devdoc": {
    "kind": "dev",
    "methods": {
      "approve(address,uint256)": {
        "details": "See {IERC721-approve}."
      },
      "balanceOf(address)": {
        "details": "See {IERC721-balanceOf}."
      },
      "baseURI()": {
        "details": "Returns the base URI set via {_setBaseURI}. This will be automatically added as a prefix in {tokenURI} to each token's URI, or to the token ID if no specific URI is set for that token ID."
      },
      "burn(uint256)": {
        "details": "Burns `tokenId`. See {ERC721-_burn}. Requirements: - The caller must own `tokenId` or be an approved operator."
      },
      "getApproved(uint256)": {
        "details": "See {IERC721-getApproved}."
      },
      "name()": {
        "details": "See {IERC721Metadata-name}."
      },
      "owner()": {
        "details": "Returns the address of the current owner."
      },
      "ownerOf(uint256)": {
        "details": "See {IERC721-ownerOf}."
      },
      "renounceOwnership()": {
        "details": "Leaves the contract without owner. It will not be possible to call `onlyOwner` functions anymore. Can only be called by the current owner. NOTE: Renouncing ownership will leave the contract without an owner, thereby removing any functionality that is only available to the owner."
      },
      "safeTransferFrom(address,address,uint256)": {
        "details": "See {IERC721-safeTransferFrom}."
      },
      "safeTransferFrom(address,address,uint256,bytes)": {
        "details": "See {IERC721-safeTransferFrom}."
      },
      "setApprovalForAll(address,bool)": {
        "details": "See {IERC721-setApprovalForAll}."
      },
      "supportsInterface(bytes4)": {
        "details": "See {IERC165-supportsInterface}. Time complexity O(1), guaranteed to always use less than 30 000 gas."
      },
      "symbol()": {
        "details": "See {IERC721Metadata-symbol}."
      },
      "tokenByIndex(uint256)": {
        "details": "See {IERC721Enumerable-tokenByIndex}."
      },
      "tokenOfOwnerByIndex(address,uint256)": {
        "details": "See {IERC721Enumerable-tokenOfOwnerByIndex}."
      },
      "tokenURI(uint256)": {
        "details": "See {IERC721Metadata-tokenURI}."
      },
      "totalSupply()": {
        "details": "See {IERC721Enumerable-totalSupply}."
      },
      "transferFrom(address,address,uint256)": {
        "details": "See {IERC721-transferFrom}."
      },
      "transferOwnership(address)": {
        "details": "Transfers ownership of the contract to a new account (`newOwner`). Can only be called by the current owner."
      }
    },
    "version": 1
  },
  "userdoc": {
    "kind": "user",
    "methods": {},
    "version": 1
  }
}